S00F0000426574616D61782E7372656353
S11300000C9434000C9451000C9451000C94510045
S11300100C9451000C9451000C9451000C94510018
S11300200C9451000C9451000C9451000C94510008
S11300300C9451000C9451000C9451000C945100F8
S11300400C94CF000C9451000C9451000C9451006A
S11300500C9451000C9451000C9451000C945100D8
S11300600C9451000C94510011241FBECFEFD4E026
S1130070DEBFCDBF11E0A0E0B1E0E2EEF5E002C0EA
S113008005900D92A430B107D9F721E0A4E0B1E0C6
S113009001C01D92AF32B207E1F70E945C000C94DC
S11300A0EF020C940000EFE0F1E02BE131E08193EA
S11300B0E217F307E1F708958FE084B980E287B986
S11300C08FEF8AB90E94A6000E94DB020E945902A7
S11300D08CE090E00E9453000F2EFFE0CF2EF1E061
S11300E0DF2EF02D552453940F2EF0E1EF2EF1E086
S11300F0FF2EF02D01E111E00F2EFEEF6F2EF02DFB
S1130100C2E1D1E077247A940F2EFAE28F2EF02DFB
S11301100F2EFCE29F2EF02D0F2EFAE0AF2EF02DC5
S1130120B12C0E945902F6015082F7011082F801A5
S113013060827882882D992DAA2DBB2D0197A10963
S1130140B1090097A105B105C9F7EBCFE1E6F0E0ED
S113015080E880831082A89584B7877F84BFE0E617
S1130160F0E080818861808310828FEF8AB98FE00C
S113017084B9EBE1F1E09F0187E291E040E8DF011F
S1130180A21BB30B4193A15FBE4F4C93E817F90731
S1130190B1F781E085BB80936E0085BD08951F9201
S11301A00F920FB60F9211248F939F9380910201A7
S11301B08F5F80930201811136C090910F0190935B
S11301C01B019091100190931C0190911101909347
S11301D01D019091120190931E019091130190932F
S11301E01F01909114019093200190911501909317
S11301F021019091160190932201909117019093FF
S113020023019091180190932401909119019093E6
S1130210250190911A01909326019FE0909301018A
S11302209FEF9093000190911B01891305C0909159
S113023000019E7F9093000190911C01891305C0D9
S1130240909100019D7F9093000190911D0189136D
S113025005C0909100019B7F9093000190911E0135
S1130260891305C090910001977F909300019091AC
S11302701F01891305C0909100019F7E9093000196
S113028090912001891305C0909100019F7D909366
S1130290000190912101891305C0909100019F7B79
S11302A09093000190912201891305C0909100015F
S11302B09F779093000190912301891305C0909139
S11302C001019E7F9093010190912401891305C03F
S11302D0909101019D7F90930101909125018913D3
S11302E005C0909101019B7F90930101909126019B
S11302F0891305C080910101877F8093010180915A
S1130300010185B9809100018BB99F918F910F9064
S11303100FBE0F901F901895662369F048B121E035
S113032030E0B90102C0660F771F8A95E2F7CB016E
S1130330842B88B9089548B121E030E0B90102C0A6
S1130340660F771F8A95E2F7CB018095842388B9DD
S1130350089560E080910B010E948C01089526B1FC
S113036030E0A90102C0559547958A95E2F7CA0184
S113037081700895CF93DF93D8E0C0E061E080916D
S113038006010E948C0160E0809106010E948C01AC
S1130390809104010E94AF018111C068C695D150BB
S11303A069F78C2FDF91CF910895662369F047B1E7
S11303B021E030E0B90102C0660F771F8A95E2F7A9
S11303C0CB01842B87B9089547B121E030E0B9010E
S11303D002C0660F771F8A95E2F7CB0180958423CC
S11303E087B9089560E080910B010E948C0161E05F
S11303F080910B010E94D50160E0809106010E946A
S11304008C0161E0809106010E94D50161E0809138
S113041004010E94D50161E080910B010E948C01CE
S113042008950F931F93CF93DF93182F062FC0E0E7
S1130430D0E0612F6170809104010E948C011695B7
S113044061E0809106010E948C01002349F0C730CD
S1130450D10531F460E0809104010E94D50109C006
S113046060E0809106010E948C012196C830D1057C
S113047001F7DF91CF911F910F9108950F931F936F
S1130480CF93DF938C010E94F20161E08FEB0E9415
S11304901102E801085F1F4F0E94BA018993C01737
S11304A0D107D1F70E94A901DF91CF911F910F913C
S11304B0089587E291E00E943E0280912701982FDF
S11304C09695969596959E70292F220F220F920F3E
S11304D08F70980F9093080180912801982F96951A
S11304E0969596959E70292F220F220F920F8F704A
S11304F0980F90930D0180912901982F96959695C8
S113050096959670292F220F220F920F8F70980FB5
S113051090930E0180912C01877080930C0180913F
S11305202A01982F9695969596959670292F220FC5
S1130530220F920F8F70980F9093070180912B01D7
S113054084FB992790F9990F292F220F220F920FDC
S11305508F70980F9093050140912D01842F8295FF
S11305608F7090E09C01220F331F880F991F880F12
S1130570991F880F991F820F931F4F70840F911D2D
S11305808053984F90930A01809309010895CF9363
S1130590DF93D82FC62F0E94F20160E08D2F8E7F4B
S11305A00E94110260E08C2F0E9411020E94A90196
S11305B0DF91CF91089583E08093060184E08093D6
S11305C0040185E080930B0160E08EE890E00E94D6
S11305D0C70260E080E990E00E94C7020895F894A1
S10505E0FFCF47
S10705E2FF0FFF0004
S9030000FC
